:020000040000FA
:020000000528D1
:0800080060288316031318158C
:100010008130990018129816880186010C148312F9
:100020008801860198171816313090000C100B17B4
:100030008B178F018E01A4018C1E1C281A084130D9
:100040001A060319332844301A0603193728533087
:100050001A0603193B2849301A0603193D28543063
:100060001A06031941280A30860053201C2809303B
:10007000860053201C2886011C2806308600532049
:100080001C280530860053201C28313C031D4C28B9
:100090004928081453201C2808101C288316981C73
:1000A0004E2883121C280130A1000D30A200FF3021
:1000B000A300A30B5928A20B5728A10B5528080011
:1000C0000C1C6928A40A5B302402031D682818123E
:0400D0000C10090007
:00000001FF
