:1000000003308A002B2B0000FF00030E8301A100A8
:100010000A08A0008A010408A2007708A300780853
:10002000A4007908A5007A08A60003170D08031399
:10003000A70003170F080313A80003170C080313E6
:10004000A90003170E080313AA00831383128C3030
:100050008400801E2D288C1A4E2822088400230834
:10006000F7002408F8002508F9002608FA002708F8
:1000700003178D000313280803178F0003132908A3
:1000800003178C0003132A0803178E00031320089C
:100090008A00210E8300FF0E7F0E09008A110A12CA
:1000A0006D280A108A100A11820728340C34013492
:1000B00006344C3084008313000803196C28063082
:1000C000F800F701F70B6228F80B61287B30F70086
:1000D000F70B6828800B5F2808008C1E6D281A0813
:1000E000B7003708533C031D7828B3010130B40032
:1000F0003708413C031D7F280130B300B4003708A6
:10010000523C031D87280230B3000130B400370889
:10011000493C031D8F280330B3000130B400370879
:10012000443C031D97280430B3000130B400370865
:100130004C3C031DA2283508023C031CA2280130B8
:10014000B507B6003708463C031DAD283508013C0D
:100150000318AD280130B600B5026430CC00592038
:100160008C128A110A122D2820104136F4372005EE
:1001700020002010413B6137FA302005200020107C
:10018000D2327439EF31653265100A100001201047
:10019000493DF13AE932723261100A100001201033
:1001A000C432F232633461100A1000002010D632DB
:1001B000EC37E334E430641033100A1000012010EF
:1001C000D632EC37E334E430641032100A10000108
:1001D0002010D632EC37E334E430641031100A10CA
:1001E000000094138C114B0893000230941BFF28DD
:1001F0008C1DF82800308316111B01308312F80083
:1002000008004908003A03190929013A03192C2961
:100210005029480EF700F030F70577083104CA007E
:10022000CB00F1200000480EF700F030F70577080A
:1002300004383104CA00CB00F1200330F700F70B7B
:100240001F29480EF700F030F7057708FB39310415
:10025000CA00CB00F1205029480EF700F030F70516
:10026000770801383104CA00CB00F1200000480EA5
:10027000F700F030F7057708013804383104CA0078
:10028000CB00F1200330F700F70B4429480EF700AC
:10029000F030F705770801383104CA00CB00F120AF
:1002A0000800831611141118532983122D08CB004E
:1002B000F120450EC7000F30C7054708C8004608A3
:1002C000C900012145080F39C700C8004608C90008
:1002D00001218316111511196B29831208000130B1
:1002E000C500C6015121AB018B1BAB178B1302302C
:1002F000CC005920AB1B8B170130B00008003A0826
:10030000AD003C08AE003B08AF000B138B138B1BFA
:100310008629AB018B1BAB178B133230CC005920D5
:10032000AB1B8B17831611141118942983122D08F7
:10033000CB00F120C801C9010121AB018B1BAB1718
:100340008B130F30CC005920AB1B8B170130BD0035
:100350003D08033C031CBB290330C800C90101212F
:10036000AB018B1BAB178B130530CC005920AB1B9B
:100370008B17BD0AA8290230C800C9010121AB01B1
:100380008B1BAB178B130530CC005920AB1B8B1785
:10039000831611151119CA298312BD013D08033CAA
:1003A000031CE3293D085120BE00C500C6015121B0
:1003B000AB018B1BAB178B130530CC005920AB1B4B
:1003C0008B17BD0ACE296F21C0308B048A110A1207
:1003D0007D2B831611141118EB2942308312CB00A8
:1003E000F120CB01F120831611151119F529831283
:1003F0008A110A127E2B3308003A03190C2A013A9B
:100400000319122A033A03192B2A013A0319442A21
:10041000073A03195D2A762A831686010F30831264
:100420008600762A0719162A0610172A061483163C
:100430000610831286148316861083120719222A47
:100440000611232A061583160611831286158316B4
:1004500086118312762A0614831606108312071952
:10046000332A8610342A86148316861083120615C2
:1004700083160611831207193F2A8611402A861512
:10048000831686118312762A0719482A0610492AEC
:1004900006148316061083128614831686108312A0
:1004A00006158316061183120719582A8611592A30
:1004B0008615831686118312762A06148316061073
:1004C00083120719652A8610662A861483168610F9
:1004D000831207196D2A06116E2A06158316061156
:1004E00083128615831686118312762A8A110A12C0
:1004F000822B3F082E020318802A2E08C000822A71
:100500003F08C0004008013A0319902A033A031932
:10051000922A013A0319952A073A0319982A9B2A25
:10052000C2019C2A4030C2009C2A1430C2009C2A7E
:100530005430C2009C2AC2013E082F020318A32A8D
:100540002F08C100A52A3E08C10001304102420720
:10055000C30043088038C400C500C601512108000B
:100560003D080C3A0319BB2A063A0319BD2A023A80
:100570000319CA2ACF2A6F21D42AB00A30082E02C2
:100580000318C42A0130B0000130BE003008BF009B
:100590007922D42A1030C500C6015121D42A3D0841
:1005A000C5000130C600512108000B08BA008B13AA
:1005B000831603178C170C1400000000831203131A
:1005C000BA1B8B1703170C087F390319292B031348
:1005D000BA0003170D080313BB0003170F0803131A
:1005E000BC003A08BD00B0223B0803178D0003137E
:1005F0003C0803178F0003130B08BD008B138316F1
:1006000003178C170C140000000083120313BD1B8A
:100610008B1703170C0D0E0D7F390319292B0313AC
:10062000BA0003170D080313BB0003170F080313C9
:10063000BC003A08BD00B0223B0803178D0003132D
:100640003C0803178F008D0A03198F0A0313D52A5C
:1006500003170313080003081F3983008130831632
:100660009900A6309800903083129800FF30AC00BB
:10067000AC152C088316870083122C162C088316C1
:10068000870031309300283083129400831694172A
:10069000141301308312B0000830B100B301B4016B
:1006A0000130B500B601B901B80183161F149F14BB
:1006B0001F159F1183138312B20183168C16C0304D
:1006C00083128B040030F80006389200FF30831646
:1006D000920083122C112C088316870083120711B5
:1006E0000C309700F030831686004E308312BA002B
:1006F0001030BB000230BC007F29E9290130B60070
:10070000B400FB29340BD62B0C30BD00B0223308CB
:100710000319972B013A0319A32B033A0319AF2BA3
:10072000013A0319BB2B073A0319C72BD32B01300E
:10073000BE00BF007922B43003178D0000308F0057
:100740000313D522D32B0130BE00BF007922B9306C
:1007500003178D0000308F000313D522D32B0130F7
:10076000BE00BF007922BF3003178D0000308F001C
:100770000313D522D32B0130BE00BF007922C7302E
:1007800003178D0000308F000313D522D32B0130C7
:10079000BE00BF007922CF3003178D0000308F00DC
:1007A0000313D522D32B0130B600B401360B1A2C1B
:1007B0003508013A0319E32B033A0319F22B013AE6
:1007C0000319012C102C143095000130BE000230AA
:1007D000BF007922D63003178D0000308F0003133D
:1007E000D522102C3C3095000130BE000230BF00F5
:1007F0007922DF3003178D0000308F000313D522DC
:10080000102C7F3095000130BE000230BF007922ED
:10081000E83003178D0000308F000313D522102C11
:10082000B601AB018B1BAB178B136430CC00592086
:08083000AB1B8B17812B630049
:023E00000800B8
:02400E00723FFF
:00000001FF
;PIC16F877
;CRC=5539  CREATED="19-jun.-23 23:17"
