:020000040000FA
:020000000528D1
:06000A0083160313181514
:100010008130990018129816880186018312880190
:100020008601981718168C1E13281A0841301A06D4
:1000300003192A2844301A0603192E2853301A06A9
:100040000319322849301A060319342854301A0685
:10005000031938280A3086004A2013280930860000
:100060004A20132886011328063086004A201328C8
:10007000053086004A201328313C031D43284028C0
:1000800008144A201328081013288316981C4528A2
:10009000831213280130A1000D30A200FF30A3000D
:0E00A000A30B5028A20B4E28A10B4C280800E1
:00000001FF
