:020000040000FA
:020000000528D1
:06000A008501860187015B
:1000100088018901831603130030860000308700B1
:10002000FF308800FF30890007309F0000308500D6
:1000300083124E2180305F21090807398207272863
:100040008E28BC280E2942294D294D294D29503092
:100050006621413066214D306621453066214C30A5
:1000600066214130662120306621433066214130CF
:1000700066215330662154306621493066214C3068
:1000800066214C3066214F306621C0305F214330FD
:10009000662141306621523066214C3066214F3056
:1000A000662153306621203066214330662141307D
:1000B00066215330662154306621453066214C302C
:1000C0006621413066214E30662101305F2180304B
:1000D0005F21523066214F3066214730662145301E
:1000E00066214C306621493066214F306621483008
:1000F000662145306621523066214E3066214130FE
:1001000066214E30662144306621453066215A30E2
:10011000662101305F2180305F211C28A301A401EA
:10012000A501443066213A3066210808A8006430F1
:10013000A8020318B8286430A8070A30A8020318D8
:10014000BA280A30A8072808A5002308303E6621EF
:100150002408303E66212508303E66210908013C0E
:100160000319AE2801305F2180305F2180011C28F7
:10017000A30A9728A40A9D28483066213A306621B0
:1001800080010808A7002708F039A600A60CA60CD5
:10019000A60CA60CD92027080F39A600D9200908DB
:1001A000023C0319CF2801305F2180305F2180019C
:1001B0001C2826088207EB28ED28EF28F128F328D1
:1001C000F528F728F928FB28FD28FF28012903290D
:1001D00005290729092930300B2931300B29323004
:1001E0000B2933300B2934300B2935300B293630AD
:1001F0000B2937300B2938300B2939300B29413086
:100200000B2942300B2943300B2944300B29453050
:100210000B2946300B2966218001080042306621F7
:100220003A306621881B3C21881F3F21081B3C2156
:10023000081F3F21881A3C21881E3F21081A3C21B3
:10024000081E3F2188193C21881D3F2108193C21A7
:10025000081D3F2188183C21881C3F2108183C219B
:10026000081C3F210908033C0319322901305F2192
:1002700080305F2180011C28313066210800303039
:100280006621080040300908043C03194329013065
:100290005F2180305F2180011C281C2830305F21C5
:1002A000782130305F21782138305F210C305F2198
:1002B00001305F2106305F2102305F210800860097
:1002C0006F21051085146F218510080086006F21AD
:1002D000051485146F2185106F216F210800AA3045
:1002E000A100A430A000A00B7329A10B7129080064
:1002F0000330A000FF30A100FF30A200A20B7E2936
:0A030000A10B7C29A00B7A2908004C
:00000001FF
