:020000040000FA
:020000000528D1
:06000A008501860187015B
:1000100088018901831603130030860000308700B1
:10002000FF308800FF30890007309F0000308500D6
:100030008312772180308821090807398207272811
:100040008E28BC280E294229762976297629503017
:100050008F2141308F214D308F2145308F214C3001
:100060008F2141308F2120308F2143308F2141302B
:100070008F2153308F2154308F2149308F214C30C4
:100080008F214C308F214F308F21C0308821433059
:100090008F2141308F2152308F214C308F214F30B2
:1000A0008F2153308F2120308F2143308F214130D9
:1000B0008F2153308F2154308F2145308F214C3088
:1000C0008F2141308F214E308F21013088218030A7
:1000D000882152308F214F308F2147308F2145307A
:1000E0008F214C308F2149308F214F308F21483064
:1000F0008F2145308F2152308F214E308F2141305A
:100100008F214E308F2144308F2145308F215A303E
:100110008F2101308821803088211C28A301A4016F
:10012000A50144308F213A308F210808A80064309F
:10013000A8020318B8286430A8070A30A8020318D8
:10014000BA280A30A8072808A5002308303E8F21C6
:100150002408303E8F212508303E8F210908013CBC
:100160000319AE28013088218030882180011C28A5
:10017000A30A9728A40A9D2848308F213A308F215E
:1001800080010808A7002708F039A600A60CA60CD5
:10019000A60CA60CD92027080F39A600D9200908DB
:1001A000023C0319CF28013088218030882180014A
:1001B0001C2826088207EB28ED28EF28F128F328D1
:1001C000F528F728F928FB28FD28FF28012903290D
:1001D00005290729092930300B2931300B29323004
:1001E0000B2933300B2934300B2935300B293630AD
:1001F0000B2937300B2938300B2939300B29413086
:100200000B2942300B2943300B2944300B29453050
:100210000B2946300B298F218001080042308F21A5
:100220003A308F21881B3C21881F3F21081B3C212D
:10023000081F3F21881A3C21881E3F21081A3C21B3
:10024000081E3F2188193C21881D3F2108193C21A7
:10025000081D3F2188183C21881C3F2108183C219B
:10026000081C3F210908033C031932290130882169
:100270008030882180011C2831308F2108003030E7
:100280008F21080040308821A12104308F210E30B9
:100290008F211F308F2115308F211F308F211F306C
:1002A0008F211F308F2115308F2100308F211B307F
:1002B0008F211B308F2100308F2111308F211F3073
:1002C0008F210E308F2100308F2180308821A12195
:1002D00000308F2101308F210908043C03196C295B
:1002E000013088218030882180011C281C28303072
:1002F0008821A12130308821A121383088210C307B
:1003000088210130882106308821023088210800A8
:100310008600982105108514982185100800860014
:10032000982105148514982185109821982108009A
:10033000AA30A100A430A000A00B9C29A10B9A29EF
:1003400008000330A000FF30A100FF30A200A20B84
:0C035000A729A10BA529A00BA3290800D8
:00000001FF
