:1000000002308A00252A00000A108A100A1182078D
:1000100028340C3401340634202161356F100A1065
:100020000000A029F43770100A100001201041369A
:10003000F437200520002010CD32E4346F100A1070
:1000400000012010C230EA37200520003030840043
:1000500083130008031939280630F800F701F70B5D
:100060002F28F80B2E287B30F700F70B3528800B54
:100070002C28080094138C113D0893000230941B27
:1000800048288C1D412800308316111B0130831233
:10009000F80008003B08003A03195228013A0319F6
:1000A000752899283A0EF700F030F70577082504EF
:1000B000BC00BD003A2000003A0EF700F030F70512
:1000C000770804382504BC00BD003A200330F7004F
:1000D000F70B68283A0EF700F030F7057708FB3980
:1000E0002504BC00BD003A2099283A0EF700F030F4
:1000F000F705770801382504BC00BD003A20000050
:100100003A0EF700F030F705770801380438250477
:10011000BC00BD003A200330F700F70B8D283A0EE3
:10012000F700F030F705770801382504BC00BD0062
:100130003A2008008316111411189C2883122108F4
:10014000BD003A20370EB9000F30B9053908BA00A2
:100150003808BB004A2037080F39B900BA00380800
:10016000BB004A20831611151119B4288312080008
:100170000130B700B8019A200230B00026200130CB
:10018000A40008002C08A1002E08A2002D08A3003E
:100190000B138B138B1BC9283230B000262083161B
:1001A00011141118D12883122108BD003A20BA0178
:1001B000BB014A200F30B00026200130AF002F08CD
:1001C000033C031CEC280330BA00BB014A20053075
:1001D000B0002620AF0ADF280230BA00BB014A2057
:1001E0000530B0002620831611151119F528831249
:1001F000AF012F08033C031C08292F080420B0007E
:10020000B700B8019A200530B0002620AF0AF928BF
:10021000B820C0308B048A110A12742A8316111474
:100220001118102942308312BD003A202908BD0060
:100230003A208316111511191B2983128A110A12EB
:10024000752A31082202031828292208B2002A2917
:100250003108B2003208013A03193829033A031968
:100260003A29013A03193D29073A0319402943293C
:10027000B40144294030B40044291430B400442966
:100280005430B4004429B4013008230203184B2928
:100290002308B3004D293008B3000130330234077E
:1002A000B50035088038B600B700B8019A200800BC
:1002B0002F080C3A03196329063A03196529023AF3
:1002C000031972297729B8207C29A40A240822025C
:1002D00003186C290130A4000130B0002408B100DB
:1002E00021217C291030B700B8019A207C292F08E1
:1002F000B7000130B8009A2008000B08AC008B133F
:10030000831603178C170C140000000083120313CC
:10031000AC1B8B1703170C087F390319D129031362
:10032000AC0003170D080313AD0003170F080313E8
:10033000AE002C08AF0058212D0803178D000313C1
:100340002E0803178F0003130B08AF008B138316BF
:1003500003178C170C140000000083120313AF1B4B
:100360008B1703170C0D0E0D7F390319D1290313B9
:10037000AC0003170D080313AD0003170F08031398
:10038000AE002C08AF0058212D0803178D00031371
:100390002E0803178F008D0A03198F0A03137D2976
:1003A0000317031308002708003A0319E129013A4B
:1003B0000319F529033A0319032A013A0319112AEB
:1003C0001F2A0614831606108312861483168610BD
:1003D00001308312B000B1002121113003178D00CC
:1003E00000308F0003137D211F2A14309500013047
:1003F000B000B1002121163003178D0000308F00AE
:1004000003137D211F2A3C3095000130B000B1005C
:1004100021211B3003178D0000308F0003137D2135
:100420001F2A7F3095000130B000B100212121301A
:1004300003178D0000308F0003137D211F2A6430C5
:10044000B00026208A110A12B72A03081F39830038
:10045000813083169900A63098009030831298005E
:10046000FF30A000A01520088316870083122016F5
:1004700020088316870031309300283083129400BF
:1004800083169417141301308312A4000830A500BA
:100490000330A7000130A800A901AB01AA0183160F
:1004A0001F149F141F159F1183138312A601003080
:1004B000F80006389200FF30831692008312201154
:1004C000200883168700831207110C309700F03044
:1004D000831686008801831288014E30AC001030EC
:1004E000AD000230AE00C2280E290130B000B100CC
:1004F00021210C3003178D0000308F0003137D2164
:100500006430B0002620831606168312061A8E2A3F
:10051000A7010130A8006430B0002620831686169B
:100520008312861A992A0130A700A8006430B0000F
:100530002620831606178312061BA52A0230A70061
:100540000130A8006430B00026208316861783127D
:10055000861BB12A0330A7000130A8006430B00028
:100560002620280BB82A0C30AF005821D329A80127
:10057000A708031DC42A06148316061083128614C6
:1005800083168610CF2A8312061483160610831250
:100590000719CC2A8610CD2A861483168610842A41
:0205A0006300F6
:02400E00723FFF
:00000001FF
;PIC16F877
;CRC=EC2A  CREATED="19-jun.-23 20:11"
