:1000000000308A00432800002B308400831300084E
:10001000031917280630F800F701F70B0D28F80B25
:100020000C287B30F700F70B1328800B0A280800F8
:100030002708003A03192628013A03192E28033A03
:1000400003193228013A031936283B288316860102
:10005000831286018610831686103C281430950082
:1000600083163C283C30950083163C287F30950051
:1000700083163C288312831664308312AB0004205D
:100080008A110A12C12803081F39830081308316A0
:100090009900A6309800903083129800FF30A0009D
:1000A000A0152008831687008312201620088316C7
:1000B0008700313093002830831294008316941700
:1000C000141301308312A4000830A5000330A700E8
:1000D0000130A800A90183161F149F141F159F113A
:1000E00083138312A6010030F80006389200FF3017
:1000F0008316920083122011200883168700831232
:1001000007110C309700F0308316860088018312A7
:1001100088012830AA00FA30AB000420AA0B8B28F3
:10012000831606168312061A9B28A7010130A80021
:100130006430AB000420831686168312861AA62824
:100140000130A700A8006430AB0004208316061716
:100150008312061BB2280230A7000130A8006430C9
:10016000AB000420831686178312861BBE2803303B
:10017000A7000130A8006430AB000420280BC2287F
:100180001828A801A708031DCA2883168601831210
:100190008601D92806108316061083120719D52860
:1001A000861083168610D82883128614831686102C
:0601B00083129028630099
:02400E00723FFF
:00000001FF
;PIC16F877
;CRC=A52A  CREATED="16-jun.-23 12:24"
