:020000040000FA
:020000000528D1
:06000A008501860188015A
:10001000831603130030860007309F0000308500F0
:1000200000308700FF308800FF3089008312FA21FA
:100030008030042255220908003A031930200908AB
:10004000013A03194F210908023A03191921090835
:10005000033A03195A200908043A0319862005288F
:1000600045300B2252300B2249300B224B300B22F1
:1000700020300B2241300B2252300B2245300B2214
:100080004C300B2259300B2220300B224B300B22EC
:1000900041300B2252300B224C300B2241300B22CC
:1000A000C0300422552220300B2220300B22203079
:1000B0000B2208003A22522237224F2234224C22AD
:1000C000312249222E2246222B224322282240225C
:1000D00025223D2220300B2220300B2220300B2203
:1000E00020300B2220300B2220300B2220300B221C
:1000F00020300B2220300B22C03004225522203029
:100100000B2220300B2220300B220800403004222A
:10011000552200300B2201300B2203300B22073016
:100120000B2209300B2209300B2209300B220B3035
:100130000B220E300B221F300B2211300B2200300D
:100140000B2200300B2211300B221F300B221F30EC
:100150000B2200300B2210300B2218300B221C30E7
:100160000B2212300B2212300B2212300B221A30CB
:100170000B220F300B2207300B2202300B220230F1
:100180000B2202300B2203300B2200300B220030F6
:100190000B221F300B221F300B220A300B220A3099
:1001A0000B2200300B2200300B221F300B220030BC
:1001B0000B221E300B221C300B2208300B22083081
:1001C0000B2208300B2218300B2200300B2200309B
:1001D0000B2280300422552200300B2201300B22EA
:1001E00002300B2220300B2220300B2220300B2239
:1001F00020300B2220300B2220300B2220300B220B
:1002000020300B2220300B2220300B2220300B22FA
:1002100020300B2220300B22C030042255223830EF
:100220000422552203300B2204300B2205300B220E
:1002300008000808B10031080F39C0003108F03952
:10024000B100B10CB10CB10CB10C79214008B10076
:10025000792120300B2220300B2220300B2220303D
:100260000B2220300B2220300B2220300B2220309A
:100270000B2220300B2220300B2220300B2220308A
:100280000B2220300B2220300B22C03004225522BA
:1002900020300B2220300B2220300B22080030307F
:1002A0000B2230300B2230300B2220300B2220303A
:1002B0000B2220300B2220300B2220300B2220304A
:1002C0000B2220300B2220300B2220300B2220303A
:1002D0000B2220300B2220300B2220300B22C0308A
:1002E0000422552220300B2220300B2220300B22FA
:1002F00008003108003A0319BA213108013A0319FC
:10030000BE213108023A0319C2213108033A031908
:10031000C6213108043A0319CA213108053A0319E4
:10032000CE213108063A0319D2213108073A0319C0
:10033000D6213108083A0319DA213108093A03199C
:10034000DE2131080A3A0319E22131080B3A031978
:10035000E62131080C3A0319EA2131080D3A031954
:10036000EE2131080E3A0319F22131080F3A031930
:10037000F621080030300B220030080031300B220B
:100380000030080032300B220030080033300B22DE
:100390000030080034300B220030080035300B22CA
:1003A0000030080036300B220030080037300B22B6
:1003B0000030080038300B220030080039300B22A2
:1003C0000030080041300B220030080042300B2280
:1003D0000030080043300B220030080044300B226C
:1003E0000030080045300B220030080046300B2258
:1003F00000300800383004225522063004225522ED
:100400000C300422552208008600142205108514A1
:100410001422851008008600142205148514142265
:1004200085101422142208000230A100A430A0007C
:10043000A00B182AA10B162A080031300B2200301D
:10044000080030300B2200300800081C2122080070
:10045000881C21220800081D21220800881D212255
:100460000800081E21220800881E21220800081FFB
:1004700021220800881F2122080008181D220800D8
:1004800088181D22080008191D22080088191D223D
:100490000800081A1D220800881A1D220800081BDF
:1004A0001D220800881B1D2208000330A000FF3019
:1004B000A100FF30A200A20B5B2AA10B592AA00BBE
:0404C000572A0800AF
:00000001FF
