:020000040000FA
:020000000528D1
:06000A008501860187015B
:1000100088018901831603130030860000308700B1
:10002000FF308800FF30890007309F0000308500D6
:100030008312742180308521090807398207272817
:1000400058288628D8280C29732973297329403009
:1000500085219E2104308C210E308C211F308C2173
:1000600015308C211F308C211F308C2115308C21B4
:1000700000308C211B308C211B308C2100308C21D6
:1000800011308C211F308C210E308C218030852145
:100090009521952100308C2101308C210908043CE8
:1000A00003194E28013085218030852180011C28CC
:1000B000A301A401A50144308C213A308C21080809
:1000C000A8006430A802031882286430A8070A3008
:1000D000A802031884280A30A8072808A5002308C6
:1000E000303E8C212408303E8C212508303E8C2166
:1000F0000908013C031978280130852180308521C9
:1001000080011C28A30A6128A40A672848308C2192
:100110003A308C2180010808A7002708F039A60092
:10012000A60CA60CA60CA60CA32027080F39A60027
:10013000A3200908023C0319992801308521803049
:10014000852180011C2826088207B528B728B928F0
:10015000BB28BD28BF28C128C328C528C728C9284F
:10016000CB28CD28CF28D128D3283030D5283130FE
:10017000D5283230D5283330D5283430D5283530FD
:10018000D5283630D5283730D5283830D5283930DD
:10019000D5284130D5284230D5284330D5284430A1
:1001A000D5284530D5284630D5288C218001080037
:1001B00042308C213A308C21881B0621881F09216E
:1001C000081B0621081F0921881A0621881E0921FB
:1001D000081A0621081E092188190621881D0921EF
:1001E00008190621081D092188180621881C0921E3
:1001F00008180621081C09210908033C0319FC28DA
:10020000013085218030852180011C2831308C21EE
:10021000080030308C21080050308C2141308C2176
:100220004D308C2145308C214C308C2141308C213B
:1002300020308C2143308C2141308C2153308C2153
:1002400054308C2149308C214C308C214C308C2105
:100250004F308C21C030852143308C2141308C219E
:1002600052308C214C308C214F308C2153308C21DA
:1002700020308C2143308C2141308C2153308C2113
:1002800054308C2145308C214C308C2141308C21D4
:100290004E308C21013085218030852152308C21D7
:1002A0004F308C2147308C2145308C214C308C21B3
:1002B00049308C214F308C2148308C2145308C21A5
:1002C00052308C214E308C2141308C214E308C218B
:1002D00044308C2145308C215A308C2101308521CD
:1002E000803085211C281C28303085219E2130300B
:1002F00085219E21383085210C30852101308521D2
:1003000006308521023085210800860095210510E0
:100310008514952185100800860095210514851403
:1003200095218510952195210800AA30A100A430BF
:10033000A000A00B9929A10B972908000330A00069
:10034000FF30A100FF30A200A20BA429A10BA2291B
:06035000A00BA02908002B
:00000001FF
