:1000000001308A0021290000FF00030E8301A100B6
:100010000A08A0008A010408A2007708A300780853
:10002000A4007908A5007A08A600831383128C30F7
:100030008400801E1D288C1A2E2822088400230884
:10004000F7002408F8002508F9002608FA0020081F
:100050008A00210E8300FF0E7F0E09008A110A120A
:1000600045283530840083130008031944280630DE
:10007000F800F701F70B3A28F80B39287B30F70026
:10008000F70B4028800B372808008C1E45281A08DB
:10009000B3003308533C0319AF013308413C031D3F
:1000A00053280130AF003308523C031D5928023059
:1000B000AF003308493C031D5F280330AF0033080D
:1000C000443C031D65280430AF003308463C031D43
:1000D00070283108023C031C70280130B107B200BF
:1000E00033084C3C031D7B283108013C03187B2856
:1000F0000130B200B1026430B50031208C128A1197
:100100000A121D282F08003A03199328013A0319EF
:100110009928033A0319B228013A0319CB28073A60
:100120000319E428FD28831686010F308312860008
:10013000FD2807199D2806109E2806148316061010
:10014000831286148316861083120719A9280611B4
:10015000AA280615831606118312861583168611A2
:100160008312FD2806148316061083120719BA2875
:100170008610BB28861483168610831206158316F4
:10018000061183120719C6288611C72886158316FB
:1001900086118312FD280719CF280610D0280614CF
:1001A0008316061083120614831606108312061592
:1001B0008316061183120719DF288611E028861599
:1001C000831686118312FD280614831606108312E7
:1001D0000719EC288610ED288614831686108312E2
:1001E0000719F4280611F52806158316061183123F
:1001F0008615831686118312FD288A110A126B292F
:100200003108013A03190B29033A03190E29013A5F
:100210000319112914291430950014293C30950034
:1002200014297F3095001429B201A7018B1BA71751
:100230008B136430B5003120A71B8B178A110A126B
:100240006E2903081F398300813083169900A63078
:100250009800903083129800FF30A800A815280855
:1002600083168700831228162808831687003130EA
:1002700093002830831294008316941714130130CE
:100280008312AC000830AD00AF01B0010130B10005
:10029000B20183161F149F141F159F11831383121D
:1002A000AE0183168C16C03083128B040030F80028
:1002B00006389200FF308316920083122811280816
:1002C00083168700831207110C309700F0308316D5
:1002D000860083128228320B6E2900296A29630066
:023E00000800B8
:02400E00723FFF
:00000001FF
;PIC16F877
;CRC=6566  CREATED="20-jun.-23 03:13"
