:020000040000FA
:020000000E28C8
:080008000528A40B0B280828B1
:10001000A50B0B28902800300B1109008316031341
:100020008801071387171815813099001812981640
:10003000073081008312181698170B118B168B1737
:100040000B160B17880100308100FF30A4001B3015
:10005000A5008C1E29281A08A3005730A302031DEF
:1000600032284C281A08A3004130A302031D392866
:1000700058281A08A3005330A302031D40287028F3
:100080001A08A3004430A302031D472864285630F1
:10009000233C031D7C287C28413099007E2056306B
:1000A00099007E20413099007E2006308800292862
:1000B000493099007E205A3099007E2051309900B5
:1000C0007E20053088002928443099007E20453064
:1000D00099007E20523099007E200A30880029281D
:1000E000413099007E20543099007E205230990092
:1000F0007E20093088002928880129288316981C29
:100100007F28831208002D30A000E730A1000B30BB
:10011000A200A00B8C28A10B8E28A20B8928080016
:0601200088010000912897
:00000001FF
