:020000040000FA
:020000000528D1
:06000A00831603138601BA
:100010000030860080008800181581309900181281
:1000200098168312981718168C1E14281A08533C19
:1000300003192F281A08413C031934281A08523C86
:1000400003193E281A08443C031948281A08493C59
:10005000031952288316981C2B2883121428003069
:100060009900880083162B280330990088005C20B3
:100070000930990086005C2083162B2803309900F4
:1000800088005C200630990086005C2083162B28AF
:100090000130990088005C200130990086005C20C6
:1000A00083162B280230990088005C2008309900C4
:1000B00086005C2083162B289030A1009030A2008F
:1000C0006030A300A30B6228A20B6028A10B5E285E
:0200D000080026
:00000001FF
