:1000000002308A000F2A00000A108A100A118207A3
:1000100028340C3401340634A0206C3A6F100A10D6
:1000200000002010CE34F6326C1031100A1000019E
:100030002010CE34F6326C1032100A10000120105D
:10004000CE34F6326C1033100A1000002F308400CA
:1000500083130008031939280630F800F701F70B5D
:100060002F28F80B2E287B30F700F70B3528800B54
:100070002C28080094138C113C0893000230941B28
:1000800048288C1D412800308316111B0130831233
:10009000F80008003A08003A03195228013A0319F7
:1000A00075289928390EF700F030F70577082504F0
:1000B000BB00BC003A200000390EF700F030F70515
:1000C000770804382504BB00BC003A200330F70051
:1000D000F70B6828390EF700F030F7057708FB3981
:1000E0002504BB00BC003A209928390EF700F030F7
:1000F000F705770801382504BB00BC003A20000052
:10010000390EF700F030F705770801380438250478
:10011000BB00BC003A200330F700F70B8D28390EE6
:10012000F700F030F705770801382504BB00BC0064
:100130003A2008008316111411189C2883122108F4
:10014000BC003A20360EB8000F30B8053808B900A8
:100150003708BA004A2036080F39B800B900370806
:10016000BA004A20831611151119B4288312080009
:100170000130B600B7019A200230AF0026200130CE
:10018000A40008002B08A1002D08A2002C08A30041
:100190000B138B138B1BC9283230AF00262083161C
:1001A00011141118D12883122108BC003A20B9017A
:1001B000BA014A200F30AF0026200130AE002E08D1
:1001C000033C031CEC280330B900BA014A20053077
:1001D000AF002620AE0ADF280230B900BA014A205B
:1001E0000530AF002620831611151119F52883124A
:1001F000AE012E08033C031C08292E080420AF0082
:10020000B600B7019A200530AF002620AE0AF928C3
:10021000B820C0308B048A110A12602A30082202EA
:10022000031815292208B10017293008B100310838
:10023000013A03192529033A03192729013A031919
:100240002A29073A03192D293029B30131294030D1
:10025000B30031291430B30031295430B3003129AF
:10026000B3012F082302031838292308B2003A29C2
:100270002F08B200013032023307B400340880384E
:10028000B500B600B7019A2008002E080C3A0319F1
:100290005029063A03195229023A03195F296429A1
:1002A000B8206929A40A2408220203185929013018
:1002B000A4000130AF002408B0000E2169291030DD
:1002C000B600B7019A2069292E08B6000130B700A0
:1002D0009A2008000B08AB008B13831603178C17AA
:1002E0000C140000000083120313AB1B8B170317C1
:1002F0000C087F390319BE290313AB0003170D083F
:100300000313AC0003170F080313AD002B08AE0056
:1003100045212C0803178D0003132D0803178F00A8
:1003200003130B08AE008B13831603178C170C14E2
:100330000000000083120313AE1B8B1703170C0D74
:100340000E0D7F390319BE290313AB0003170D08E7
:100350000313AC0003170F080313AD002B08AE0006
:1003600045212C0803178D0003132D0803178F0058
:100370008D0A03198F0A03136A2903170313080050
:100380002708003A0319CE29013A0319DE29033A56
:100390000319EC29013A0319FA29082A8316860160
:1003A000831286010130AF00B0000E210C3003171C
:1003B0008D0000308F0003136A210C2A78309500DD
:1003C0000130AF00B0000E21113003178D00003056
:1003D0008F0003136A210C2AB43095000130AF005E
:1003E000B0000E21183003178D0000308F0003136A
:1003F0006A210C2AFA3095000130AF00B0000E21BE
:100400001F3003178D0000308F0003136A210C2A60
:100410000C2A6430AF0026208A110A12942A03089D
:100420001F398300813083169900A63098009030E0
:1004300083129800FF30A000A015200883168700C3
:10044000831220162008831687003130930028304D
:100450008312940083169417141301308312A4009E
:100460000830A500A701A801AA01A90183161F143D
:100470009F141F159F1183138312A6010030F800EB
:1004800006389200FF308316920083122011200854
:1004900083168700831207110C309700831686019C
:1004A000FF3083128600F0308316860088018312A5
:1004B00088014E30AB001030AC000230AD00C228D5
:1004C000831606168312061A6B2AA7010130A800AC
:1004D0006430AF002620831686168312861A762A89
:1004E0000130A700A8006430AF002620831606174D
:1004F0008312061B822A0230A7000130A800643054
:10050000AF002620831686178312861B8E2A03309F
:10051000A7000130A8006430AF002620280B952AE0
:100520000C30AE004521C029A801A708031D9D2A53
:100530008316860183128601A92A061083160610E7
:1005400083120719A52A8610A62A861483168610F8
:060550008312602A630023
:02400E00723FFF
:00000001FF
;PIC16F877
;CRC=EE07  CREATED="16-jun.-23 12:06"
