:020000040000FA
:020000000528D1
:06000A008501860187015B
:1000100088018901831603130030860000308700B1
:10002000FF308800FF30890007309F0000308500D6
:100030008312E7208030F820090807398207272833
:100040008E288F289028BF28E628E628E6285030FA
:10005000FF204130FF204D30FF204530FF204C3045
:10006000FF204130FF202030FF204330FF2041306F
:10007000FF205330FF205430FF204930FF204C3008
:10008000FF204C30FF204F30FF20C030F82043309D
:10009000FF204130FF205230FF204C30FF204F30F6
:1000A000FF205330FF202030FF204330FF2041301D
:1000B000FF205330FF205430FF204530FF204C30CC
:1000C000FF204130FF204E30FF200130F8208030EB
:1000D000F8205230FF204F30FF204730FF204530BE
:1000E000FF204C30FF204930FF204F30FF204830A8
:1000F000FF204530FF205230FF204E30FF2041309E
:10010000FF204E30FF204430FF204530FF205A3082
:10011000FF200130F8208030F8201C281C281C28E3
:10012000881BB920881FBC20081BB920081FBC20D1
:10013000881AB920881EBC20081AB920081EBC20C5
:100140008819B920881DBC200819B920081DBC20B9
:100150008818B920881CBC200818B920081CBC20AD
:100160000908033C0319B0280130F8208030F8203A
:100170001C283130FF2008003030FF2008004030BC
:10018000F82011210430FF200E30FF201F30FF2007
:100190001530FF201F30FF201F30FF201530FF20BB
:1001A0000030FF201B30FF201B30FF200030FF20DD
:1001B0001130FF201F30FF200E30FF208030F8204C
:1001C00011210030FF200130FF201C281C28303076
:1001D000F82011213030F82011213830F8200C306F
:1001E000F8200130F8200630F8200230F82008000E
:1001F0008600082105108514082185100800860056
:1002000008210514851408218510082108210800FB
:10021000AA30A100A430A000A00B0C29A10B0A2930
:1002200008000330A000FF30A100FF30A200A20BA5
:0C0230001729A10B1529A00B13290800A9
:00000001FF
