:1000000002308A00A52A0000FF00030E8301A10030
:100010000A08A0008A010408A2007708A300780853
:10002000A4007908A5007A08A60003170D08031399
:10003000A70003170F080313A80003170C080313E6
:10004000A90003170E080313AA00831383128C3030
:100050008400801E2D288C1A4E2822088400230834
:10006000F7002408F8002508F9002608FA002708F8
:1000700003178D000313280803178F0003132908A3
:1000800003178C0003132A0803178E00031320089C
:100090008A00210E8300FF0E7F0E09008A110A12CA
:1000A0006D280A108A100A11820728340C34013492
:1000B00006344C3084008313000803196C28063082
:1000C000F800F701F70B6228F80B61287B30F70086
:1000D000F70B6828800B5F2808008C1E6D281A0813
:1000E000B7003708533C0319B3013708413C031DDF
:1000F0007B280130B3003708523C031D81280230B1
:10010000B3003708493C031D87280330B300370884
:10011000443C031D8D280430B3003708463C031DC2
:1001200098283508023C031C98280130B507B60012
:1001300037084C3C031DA3283508013C0318A328AD
:100140000130B600B5026430CC0059208C128A11FF
:100150000A122D282028F23A653161100A10000099
:10016000AD16AD164136F437AD16AD16200520009C
:100170002010413B6137FA30AD16AD162D100A1034
:1001800000012010D2327439EF316532E516AD1618
:10019000AD16200520002010493DF13AE9327232B7
:1001A000E116AD16AD162D100A1000012010C43254
:1001B000F2326334E116AD16AD162D100A100000B0
:1001C0002010D632EC37E334E430641033100A10D8
:1001D00000012010D632EC37E334E43064103210E2
:1001E0000A1000012010D632EC37E334E4306410FA
:1001F00031100A10000094138C114B089300023048
:10020000941B09298C1D022900308316111B013013
:100210008312F80008004908003A03191329013A2B
:10022000031936295A29480EF700F030F7057708E8
:100230003104CA00CB00FB200000480EF700F0306C
:10024000F705770804383104CA00CB00FB200330DF
:10025000F700F70B2929480EF700F030F70577086B
:10026000FB393104CA00CB00FB205A29480EF700A5
:10027000F030F705770801383104CA00CB00FB20C5
:100280000000480EF700F030F70577080138043811
:100290003104CA00CB00FB200330F700F70B4E29D6
:1002A000480EF700F030F705770801383104CA002E
:1002B000CB00FB2008008316111411185D2983124E
:1002C0002D08CB00FB20450EC7000F30C70547089F
:1002D000C8004608C9000B2145080F39C700C800EF
:1002E0004608C9000B2183161115111975298312AF
:1002F00008000130C500C6015B21AB018B1BAB17A9
:100300008B130230CC005920AB1B8B170130B0008F
:1003100008003A08AD003C08AE003B08AF000B13E4
:100320008B138B1B9029AB018B1BAB178B133230BC
:10033000CC005920AB1B8B178316111411189E2962
:1003400083122D08CB00FB20C801C9010B21AB0192
:100350008B1BAB178B130F30CC005920AB1B8B17AB
:100360000130BD003D08033C031CC5290330C80013
:10037000C9010B21AB018B1BAB178B130530CC00D4
:100380005920AB1B8B17BD0AB2290230C800C90126
:100390000B21AB018B1BAB178B130530CC00592005
:1003A000AB1B8B17831611151119D4298312BD01AC
:1003B0003D08033C031CED293D085120BE00C5004B
:1003C000C6015B21AB018B1BAB178B130530CC0037
:1003D0005920AB1B8B17BD0AD8297921C0308B045B
:1003E0008A110A12F92A3F082E020318FA292E0848
:1003F000C000FC293F08C0004008013A03190A2A3E
:10040000033A03190C2A013A03190F2A073A031970
:10041000122A152AC201162A4030C200162A1430A8
:10042000C200162A5430C200162AC2013E082F020A
:1004300003181D2A2F08C1001F2A3E08C1000130E1
:1004400041024207C30043088038C400C500C6010A
:100450005B2108003D080C3A0319352A063A0319B6
:10046000372A023A0319442A492A79214E2AB00A26
:1004700030082E0203183E2A0130B0000130BE00C1
:100480003008BF00F3214E2A1030C500C6015B21A1
:100490004E2A3D08C5000130C6005B2108000B084C
:1004A000BA008B13831603178C170C14000000007E
:1004B00083120313BA1B8B1703170C087F39031918
:1004C000A32A0313BA0003170D080313BB00031775
:1004D0000F080313BC003A08BD002A223B0803178B
:1004E0008D0003133C0803178F0003130B08BD0096
:1004F0008B13831603178C170C1400000000831253
:100500000313BD1B8B1703170C0D0E0D7F39031939
:10051000A32A0313BA0003170D080313BB00031724
:100520000F080313BC003A08BD002A223B0803173A
:100530008D0003133C0803178F008D0A03198F0ADF
:1005400003134F2A03170313080003081F398300FE
:10055000813083169900A63098009030831298005D
:10056000FF30AC00AC152C088316870083122C16C4
:100570002C088316870031309300283083129400B2
:1005800083169417141301308312B0000830B100A1
:10059000B301B4010130B500B601B901B801831649
:1005A0001F149F141F159F1183138312B20183160A
:1005B0008C16C03083128B040030F800063892008D
:1005C000FF308316920083122C112C0883168700AB
:1005D000831207110C309700F030831686008801D3
:1005E000831288014E30BA001030BB000230BC00CC
:1005F00089290130BE00BF00F321AA3003178D0006
:1006000000308F0003134F22AB018B1BAB178B13F2
:100610006430CC005920AB1B8B17330803191D2BFA
:10062000013A03192E2B033A0319522B013A0319ED
:10063000762B073A03199A2BBE2B831686010F30AF
:10064000831286000130BE00BF00F321B0300317D3
:100650008D0000308F0003134F22BE2B0719322B61
:100660000610332B06148316061083128614831685
:100670008610831207193E2B06113F2B0615831691
:100680000611831286158316861101308312BE006F
:10069000BF00F321B83003178D0000308F00031323
:1006A0004F22BE2B061483160610831207195A2BED
:1006B00086105B2B8614831686108312061583160C
:1006C000061183120719662B8611672B8615831670
:1006D000861101308312BE00BF00F321C130031721
:1006E0008D0000308F0003134F22BE2B07197A2B89
:1006F00006107B2B0614831606108312061483162D
:1007000006108312061583160611831207198A2B09
:1007100086118B2B86158316861101308312BE003D
:10072000BF00F321CB3003178D0000308F0003137F
:100730004F22BE2B06148316061083120719A22B14
:100740008610A32B86148316861083120719AA2BF2
:100750000611AB2B06158316061183128615831618
:10076000861101308312BE00BF00F321D63003177B
:100770008D0000308F0003134F22BE2B360B022C4E
:100780003508013A0319CB2B033A0319DA2B013A46
:100790000319E92BF82B143095000130BE0002300C
:1007A000BF00F321E03003178D0000308F000313EA
:1007B0004F22F82B3C3095000130BE000230BF00C4
:1007C000F321E93003178D0000308F0003134F220F
:1007D000F82B7F3095000130BE000230BF00F321BE
:1007E000F23003178D0000308F0003134F22F82BD7
:1007F000B601AB018B1BAB178B136430CC005920B7
:08080000AB1B8B170D2B6300ED
:023E00000800B8
:02400E00723FFF
:00000001FF
;PIC16F877
;CRC=8F55  CREATED="27-jun.-23 18:50"
