:020000040000FA
:020000000528D1
:06000A008501860187015B
:1000100088018901831603130030860000308700B1
:10002000FF308800FF308900850105140E309F00E5
:100030008312792280308A2201309F00B022B022C0
:100040001F151F1921281E08A90009080739820752
:1000500037286528B728EC28E2293028782A782A1A
:100060005030912201308A2280308A221F28A30139
:10007000A401A501443091223A3091222908A70019
:100080006430A702031861286430A7070A30A7026A
:10009000031863280A30A7072708A5002308303E65
:1000A00091222408303E91222508303E91220908F1
:1000B000013C0319572801308A2280308A228001AE
:1000C0001F28A30A4028A40A4628483091223A3023
:1000D000912280012908A8002808F039A700A70C60
:1000E000A70CA70CA70C822028080F39A700822094
:1000F0000908013C0319782801308A2280308A22BD
:1001000080011F28270882079428962898289A2873
:100110009C289E28A028A228A428A628A828AA2887
:10012000AC28AE28B028B2283030B4283130B428FA
:100130003230B4283330B4283430B4283530B428C1
:100140003630B4283730B4283830B4283930B428A1
:100150004130B4284230B4284330B4284430B42865
:100160004530B4284630B42891228001080029087F
:10017000423091223A309122A91BE620A91FE920A2
:10018000291BE620291FE920A91AE620A91EE9203B
:10019000291AE620291EE920A919E620A91DE9202F
:1001A0002919E620291DE920A918E620A91CE92023
:1001B0002918E620291CE9200908023C0319DC283B
:1001C00001308A2280308A2280011F28313091221A
:1001D000080030309122080005212E30912237216D
:1001E0008F2120309122563091226F3091226C3035
:1001F0009122733091220908033C0319FB28013036
:100200008A2280308A2280011F282908333C031C5F
:100210000E290A29B0210030A80036292908663C99
:10022000031C17291329B5213330A80036292908C2
:10023000993C031C20291C29BA216630A8003629C4
:100240002908CC3C031C29292529BF219930A80065
:1002500036292908FF3C031C32292E29C421CC3021
:10026000A8003629C921FF30A8003629080028082F
:100270002902A700063C031C42293E29B021003078
:10028000A8008E2927080B3C031C4B294729B521C0
:100290000630A8008E292708103C031C5429502939
:1002A000BA210B30A8008E292708153C031C5D29B4
:1002B0005929BF211030A8008E2927081A3C031C99
:1002C00066296229C4211530A8008E2927081F3C01
:1002D000031C6F296B29C9211A30A8008E29270811
:1002E000243C031C78297429CE211F30A8008E29B4
:1002F0002708293C031C81297D29D3212430A8000B
:100300008E2927082E3C031C8A298629D8212930CA
:10031000A8008E29DD212E30A8008E29080028088B
:100320002702A700013C031C98299629B021AF2978
:100330002708023C031C9F299D29BA21AF292708C1
:10034000033C031CA629A429C421AF292708043C87
:10035000031CAD29AB29CE21AF29D821AF29080034
:10036000303091220030B00008003130912201304D
:10037000B0000800323091220230B0000800333063
:1003800091220330B0000800343091220430B000D4
:100390000800353091220530B00008003630912237
:1003A0000630B0000800373091220730B000080056
:1003B000383091220830B0000800393091220930DD
:1003C000B0000800052101308A2240308A22A32291
:1003D000003091220E3091220A3091220A3091226F
:1003E0000A30912211309122113091221F30912236
:1003F000003091220E3091220A3091220A3091224F
:100400000A309122113091221F3091221F30912207
:10041000003091220E3091220A3091220A3091222E
:100420000A3091221F3091221F3091221F309122D9
:10043000003091220E3091220A3091220A3091220E
:100440000E3091221F3091221F3091221F309122B5
:10045000003091220E3091220A3091220E309122EA
:100460000E3091221F3091221F3091221F30912295
:10047000003091220E3091220E3091220E309122C6
:100480000E3091221F3091221F3091221F30912275
:1004900080308A22A3220130B00203195F2AB00201
:1004A0000319622AB0020319652AB0020319682AE7
:1004B000B00203196B2A5C2A003091226E2A0130A7
:1004C00091226E2A023091226E2A033091226E2AE6
:1004D000043091226E2A053091226E2A0908043CCC
:1004E00003196E2A01308A2280308A2280011F2857
:1004F0001F2830308A22A32230308A22A3223830AB
:100500008A220C308A2201308A2206308A22023066
:100510008A22080086009A22851005159A22051164
:10052000080086009A22851405159A2205119A2240
:100530009A220800AA30A100A430A000A00B9E2A95
:10054000A10B9C2A08000330A000FF30A100FF305F
:10055000A200A20BA92AA10BA72AA00BA52A08007A
:0A0560005330A100A10BB22A0800DD
:00000001FF
