:020000040000FA
:020000000528D1
:06000A008501860187015B
:1000100088018901831603130030860000308700B1
:10002000FF308800FF308900850105140E309F00E5
:10003000831258228030692201309F008F228F2244
:100040001F151F1921281E08A90009080739820752
:1000500037286528B728EC28D8293028572A572A66
:100060005030702201306922803069221F28A3019C
:10007000A401A501443070223A3070222908A7005B
:100080006430A702031861286430A7070A30A7026A
:10009000031863280A30A7072708A5002308303E65
:1000A00070222408303E70222508303E7022090854
:1000B000013C0319572801306922803069228001F0
:1000C0001F28A30A4028A40A4628483070223A3044
:1000D000702280012908A8002808F039A700A70C81
:1000E000A70CA70CA70C822028080F39A700822094
:1000F0000908013C031978280130692280306922FF
:1001000080011F28270882079428962898289A2873
:100110009C289E28A028A228A428A628A828AA2887
:10012000AC28AE28B028B2283030B4283130B428FA
:100130003230B4283330B4283430B4283530B428C1
:100140003630B4283730B4283830B4283930B428A1
:100150004130B4284230B4284330B4284430B42865
:100160004530B4284630B4287022800108002908A0
:10017000423070223A307022A91BE620A91FE920E4
:10018000291BE620291FE920A91AE620A91EE9203B
:10019000291AE620291EE920A919E620A91DE9202F
:1001A0002919E620291DE920A918E620A91CE92023
:1001B0002918E620291CE9200908023C0319DC283B
:1001C000013069228030692280011F28313070227D
:1001D000080030307022080005212E3070223721AF
:1001E0008F2120307022563070226F3070226C3098
:1001F0007022733070220908033C0319FB28013078
:1002000069228030692280011F282908333C031CA1
:100210000E290A29B0210030A80036292908663C99
:10022000031C17291329B4213330A80036292908C3
:10023000993C031C20291C29B8216630A8003629C6
:100240002908CC3C031C29292529BC219930A80068
:1002500036292908FF3C031C32292E29C021CC3025
:10026000A8003629C421FF30A80036290800280834
:100270002902A700063C031C42293E29B021003078
:10028000A8008E2927080B3C031C4B294729B421C1
:100290000630A8008E292708103C031C5429502939
:1002A000B8210B30A8008E292708153C031C5D29B6
:1002B0005929BC211030A8008E2927081A3C031C9C
:1002C00066296229C0211530A8008E2927081F3C05
:1002D000031C6F296B29C4211A30A8008E29270816
:1002E000243C031C78297429C8211F30A8008E29BA
:1002F0002708293C031C81297D29CC212430A80012
:100300008E2927082E3C031C8A298629D0212930D2
:10031000A8008E29D4212E30A8008E290800280894
:100320002702A700013C031C98299629B021AF2978
:100330002708023C031C9F299D29B821AF292708C3
:10034000033C031CA629A429C021AF292708043C8B
:10035000031CAD29AB29C821AF29D021AF29080042
:1003600030307022B000080031307022B000080038
:1003700032307022B000080033307022B000080024
:1003800034307022B000080035307022B000080010
:1003900036307022B000080037307022B0000800FC
:1003A00038307022B000080039307022B0000800E8
:1003B0004030692282220E3070220A3070220A30C8
:1003C00070220A30702211307022113070221F30DA
:1003D00070220E3070220A3070220A3070220A30E9
:1003E0007022113070221F3070221F3070220E30A8
:1003F00070220A3070220A3070220A3070221F30B8
:1004000070221F3070221F3070220E3070220A308E
:1004100070220A3070220E3070221F3070221F307E
:1004200070221F3070220E3070220A3070220E307F
:1004300070220E3070221F3070221F3070221F3049
:1004400070220E3070220E3070220E3070220E306C
:1004500070221F3070221F3070221F3070228030B7
:10046000692282220521300882073B2A3E2A412A3E
:10047000442A472A4A2A003070224D2A013070222D
:100480004D2A023070224D2A033070224D2A04304A
:1004900070224D2A053070224D2A0908043C0319A8
:1004A0004D2A013069228030692280011F281F28CF
:1004B000303069228222303069228222383069222B
:1004C0000C3069220130692206306922023069222B
:1004D000080086007922851005157922051108008B
:1004E0008600792285140515792205117922792251
:1004F0000800AA30A100A430A000A00B7D2AA10B07
:100500007B2A08000330A000FF30A100FF30A200CA
:10051000A20B882AA10B862AA00B842A080053303C
:08052000A100A10B912A0800C3
:00000001FF
