:020000040000FA
:020000000528D1
:06000A00860183160313BA
:1000100086011815813099001812981683129817C6
:1000200018168C1E11281A0841301A0603192828A0
:1000300044301A0603192C2853301A0603193028A5
:1000400049301A060319332854301A060319372881
:100050000A3086003B201128093086003B201128F9
:10006000003086001128063086003B20112805301C
:1000700086003B2011281030A100D000A200603083
:10008000A300A30B4128A20B3F28A10B3D28080089
:00000001FF
